{
  "contractName": "StarNotary",
  "abi": [
    {
      "constant": true,
      "inputs": [
        {
          "name": "interfaceId",
          "type": "bytes4"
        }
      ],
      "name": "supportsInterface",
      "outputs": [
        {
          "name": "",
          "type": "bool"
        }
      ],
      "payable": false,
      "stateMutability": "view",
      "type": "function"
    },
    {
      "constant": true,
      "inputs": [
        {
          "name": "",
          "type": "uint256"
        }
      ],
      "name": "starsForSale",
      "outputs": [
        {
          "name": "",
          "type": "uint256"
        }
      ],
      "payable": false,
      "stateMutability": "view",
      "type": "function"
    },
    {
      "constant": true,
      "inputs": [
        {
          "name": "tokenId",
          "type": "uint256"
        }
      ],
      "name": "getApproved",
      "outputs": [
        {
          "name": "",
          "type": "address"
        }
      ],
      "payable": false,
      "stateMutability": "view",
      "type": "function"
    },
    {
      "constant": false,
      "inputs": [
        {
          "name": "to",
          "type": "address"
        },
        {
          "name": "tokenId",
          "type": "uint256"
        }
      ],
      "name": "approve",
      "outputs": [],
      "payable": false,
      "stateMutability": "nonpayable",
      "type": "function"
    },
    {
      "constant": true,
      "inputs": [
        {
          "name": "",
          "type": "uint256"
        }
      ],
      "name": "tokenIdToStarInfo",
      "outputs": [
        {
          "name": "name",
          "type": "string"
        },
        {
          "name": "ra",
          "type": "string"
        },
        {
          "name": "dec",
          "type": "string"
        },
        {
          "name": "mag",
          "type": "string"
        },
        {
          "name": "story",
          "type": "string"
        }
      ],
      "payable": false,
      "stateMutability": "view",
      "type": "function"
    },
    {
      "constant": false,
      "inputs": [
        {
          "name": "from",
          "type": "address"
        },
        {
          "name": "to",
          "type": "address"
        },
        {
          "name": "tokenId",
          "type": "uint256"
        }
      ],
      "name": "transferFrom",
      "outputs": [],
      "payable": false,
      "stateMutability": "nonpayable",
      "type": "function"
    },
    {
      "constant": false,
      "inputs": [
        {
          "name": "from",
          "type": "address"
        },
        {
          "name": "to",
          "type": "address"
        },
        {
          "name": "tokenId",
          "type": "uint256"
        }
      ],
      "name": "safeTransferFrom",
      "outputs": [],
      "payable": false,
      "stateMutability": "nonpayable",
      "type": "function"
    },
    {
      "constant": true,
      "inputs": [],
      "name": "named",
      "outputs": [
        {
          "name": "",
          "type": "string"
        }
      ],
      "payable": false,
      "stateMutability": "view",
      "type": "function"
    },
    {
      "constant": true,
      "inputs": [
        {
          "name": "tokenId",
          "type": "uint256"
        }
      ],
      "name": "ownerOf",
      "outputs": [
        {
          "name": "",
          "type": "address"
        }
      ],
      "payable": false,
      "stateMutability": "view",
      "type": "function"
    },
    {
      "constant": true,
      "inputs": [
        {
          "name": "owner",
          "type": "address"
        }
      ],
      "name": "balanceOf",
      "outputs": [
        {
          "name": "",
          "type": "uint256"
        }
      ],
      "payable": false,
      "stateMutability": "view",
      "type": "function"
    },
    {
      "constant": true,
      "inputs": [],
      "name": "symbol",
      "outputs": [
        {
          "name": "",
          "type": "string"
        }
      ],
      "payable": false,
      "stateMutability": "view",
      "type": "function"
    },
    {
      "constant": false,
      "inputs": [
        {
          "name": "to",
          "type": "address"
        },
        {
          "name": "approved",
          "type": "bool"
        }
      ],
      "name": "setApprovalForAll",
      "outputs": [],
      "payable": false,
      "stateMutability": "nonpayable",
      "type": "function"
    },
    {
      "constant": false,
      "inputs": [
        {
          "name": "from",
          "type": "address"
        },
        {
          "name": "to",
          "type": "address"
        },
        {
          "name": "tokenId",
          "type": "uint256"
        },
        {
          "name": "_data",
          "type": "bytes"
        }
      ],
      "name": "safeTransferFrom",
      "outputs": [],
      "payable": false,
      "stateMutability": "nonpayable",
      "type": "function"
    },
    {
      "constant": true,
      "inputs": [
        {
          "name": "owner",
          "type": "address"
        },
        {
          "name": "operator",
          "type": "address"
        }
      ],
      "name": "isApprovedForAll",
      "outputs": [
        {
          "name": "",
          "type": "bool"
        }
      ],
      "payable": false,
      "stateMutability": "view",
      "type": "function"
    },
    {
      "anonymous": false,
      "inputs": [
        {
          "indexed": true,
          "name": "from",
          "type": "address"
        },
        {
          "indexed": true,
          "name": "to",
          "type": "address"
        },
        {
          "indexed": true,
          "name": "tokenId",
          "type": "uint256"
        }
      ],
      "name": "Transfer",
      "type": "event"
    },
    {
      "anonymous": false,
      "inputs": [
        {
          "indexed": true,
          "name": "owner",
          "type": "address"
        },
        {
          "indexed": true,
          "name": "approved",
          "type": "address"
        },
        {
          "indexed": true,
          "name": "tokenId",
          "type": "uint256"
        }
      ],
      "name": "Approval",
      "type": "event"
    },
    {
      "anonymous": false,
      "inputs": [
        {
          "indexed": true,
          "name": "owner",
          "type": "address"
        },
        {
          "indexed": true,
          "name": "operator",
          "type": "address"
        },
        {
          "indexed": false,
          "name": "approved",
          "type": "bool"
        }
      ],
      "name": "ApprovalForAll",
      "type": "event"
    },
    {
      "constant": false,
      "inputs": [
        {
          "name": "na",
          "type": "string"
        },
        {
          "name": "dec",
          "type": "string"
        },
        {
          "name": "mag",
          "type": "string"
        },
        {
          "name": "cent",
          "type": "string"
        },
        {
          "name": "story",
          "type": "string"
        },
        {
          "name": "_tokenId",
          "type": "uint256"
        }
      ],
      "name": "createStar",
      "outputs": [],
      "payable": false,
      "stateMutability": "nonpayable",
      "type": "function"
    },
    {
      "constant": true,
      "inputs": [],
      "name": "getTokenName",
      "outputs": [
        {
          "name": "",
          "type": "string"
        }
      ],
      "payable": false,
      "stateMutability": "view",
      "type": "function"
    },
    {
      "constant": true,
      "inputs": [],
      "name": "getSymbolName",
      "outputs": [
        {
          "name": "",
          "type": "string"
        }
      ],
      "payable": false,
      "stateMutability": "view",
      "type": "function"
    },
    {
      "constant": false,
      "inputs": [
        {
          "name": "_tokenId",
          "type": "uint256"
        },
        {
          "name": "_price",
          "type": "uint256"
        }
      ],
      "name": "putStarUpForSale",
      "outputs": [],
      "payable": false,
      "stateMutability": "nonpayable",
      "type": "function"
    },
    {
      "constant": false,
      "inputs": [
        {
          "name": "_tokenId",
          "type": "uint256"
        }
      ],
      "name": "buyStar",
      "outputs": [],
      "payable": true,
      "stateMutability": "payable",
      "type": "function"
    },
    {
      "constant": true,
      "inputs": [
        {
          "name": "_tokenId",
          "type": "uint256"
        }
      ],
      "name": "lookUptokenIdToStarInfo",
      "outputs": [
        {
          "name": "",
          "type": "string"
        }
      ],
      "payable": false,
      "stateMutability": "view",
      "type": "function"
    },
    {
      "constant": false,
      "inputs": [
        {
          "name": "_tokenId",
          "type": "uint256"
        },
        {
          "name": "_tokenId1",
          "type": "uint256"
        }
      ],
      "name": "exchangeStars",
      "outputs": [],
      "payable": false,
      "stateMutability": "nonpayable",
      "type": "function"
    },
    {
      "constant": false,
      "inputs": [
        {
          "name": "addressReceiver",
          "type": "address"
        },
        {
          "name": "_tokenId",
          "type": "uint256"
        }
      ],
      "name": "transferStar",
      "outputs": [],
      "payable": false,
      "stateMutability": "nonpayable",
      "type": "function"
    }
  ],
  "bytecode": "0x60806040526040805190810160405280600e81526020017f45726e6573746f424d546f6b656e0000000000000000000000000000000000008152506005908051906020019062000051929190620001de565b506040805190810160405280600381526020017f45424d0000000000000000000000000000000000000000000000000000000000815250600690805190602001906200009f929190620001de565b50620000dd6301ffc9a77c01000000000000000000000000000000000000000000000000000000000262000120640100000000026401000000009004565b6200011a6380ac58cd7c01000000000000000000000000000000000000000000000000000000000262000120640100000000026401000000009004565b6200028d565b63ffffffff7c010000000000000000000000000000000000000000000000000000000002817bffffffffffffffffffffffffffffffffffffffffffffffffffffffff1916141515156200017257600080fd5b6001600080837bffffffffffffffffffffffffffffffffffffffffffffffffffffffff19167bffffffffffffffffffffffffffffffffffffffffffffffffffffffff1916815260200190815260200160002060006101000a81548160ff02191690831515021790555050565b828054600181600116156101000203166002900490600052602060002090601f016020900481019282601f106200022157805160ff191683800117855562000252565b8280016001018555821562000252579182015b828111156200025157825182559160200191906001019062000234565b5b50905062000261919062000265565b5090565b6200028a91905b80821115620002865760008160009055506001016200026c565b5090565b90565b612524806200029d6000396000f300608060405260043610610128576000357c0100000000000000000000000000000000000000000000000000000000900463ffffffff16806301ffc9a71461012d5780630564b13014610191578063081812fc146101d2578063095ea7b31461023f57806315e0afa51461028c5780631967fd98146102c357806323b872dd146105195780632f1c34ef14610586578063316a4361146105a657806342842e0e146105dd57806345f907a81461064a5780636352211e146106da57806370a0823114610747578063862b092b1461079e57806395d89b411461082e578063a22cb465146108be578063b250ced01461090d578063b88d4fde14610a98578063d7830ccb14610b4b578063e2ffb7fb14610bf1578063e7152a5c14610c81578063e985e9c514610cce575b600080fd5b34801561013957600080fd5b5061017760048036038101908080357bffffffffffffffffffffffffffffffffffffffffffffffffffffffff19169060200190929190505050610d49565b604051808215151515815260200191505060405180910390f35b34801561019d57600080fd5b506101bc60048036038101908080359060200190929190505050610db0565b6040518082815260200191505060405180910390f35b3480156101de57600080fd5b506101fd60048036038101908080359060200190929190505050610dc8565b604051808273ffffffffffffffffffffffffffffffffffffffff1673ffffffffffffffffffffffffffffffffffffffff16815260200191505060405180910390f35b34801561024b57600080fd5b5061028a600480360381019080803573ffffffffffffffffffffffffffffffffffffffff16906020019092919080359060200190929190505050610e19565b005b34801561029857600080fd5b506102c16004803603810190808035906020019092919080359060200190929190505050610f5e565b005b3480156102cf57600080fd5b506102ee60048036038101908080359060200190929190505050610fa5565b60405180806020018060200180602001806020018060200186810386528b818151815260200191508051906020019080838360005b8381101561033e578082015181840152602081019050610323565b50505050905090810190601f16801561036b5780820380516001836020036101000a031916815260200191505b5086810385528a818151815260200191508051906020019080838360005b838110156103a4578082015181840152602081019050610389565b50505050905090810190601f1680156103d15780820380516001836020036101000a031916815260200191505b50868103845289818151815260200191508051906020019080838360005b8381101561040a5780820151818401526020810190506103ef565b50505050905090810190601f1680156104375780820380516001836020036101000a031916815260200191505b50868103835288818151815260200191508051906020019080838360005b83811015610470578082015181840152602081019050610455565b50505050905090810190601f16801561049d5780820380516001836020036101000a031916815260200191505b50868103825287818151815260200191508051906020019080838360005b838110156104d65780820151818401526020810190506104bb565b50505050905090810190601f1680156105035780820380516001836020036101000a031916815260200191505b509a505050505050505050505060405180910390f35b34801561052557600080fd5b50610584600480360381019080803573ffffffffffffffffffffffffffffffffffffffff169060200190929190803573ffffffffffffffffffffffffffffffffffffffff169060200190929190803590602001909291905050506112d3565b005b6105a4600480360381019080803590602001909291905050506113a2565b005b3480156105b257600080fd5b506105db60048036038101908080359060200190929190803590602001909291905050506114a9565b005b3480156105e957600080fd5b50610648600480360381019080803573ffffffffffffffffffffffffffffffffffffffff169060200190929190803573ffffffffffffffffffffffffffffffffffffffff16906020019092919080359060200190929190505050611507565b005b34801561065657600080fd5b5061065f611528565b6040518080602001828103825283818151815260200191508051906020019080838360005b8381101561069f578082015181840152602081019050610684565b50505050905090810190601f1680156106cc5780820380516001836020036101000a031916815260200191505b509250505060405180910390f35b3480156106e657600080fd5b50610705600480360381019080803590602001909291905050506115c6565b604051808273ffffffffffffffffffffffffffffffffffffffff1673ffffffffffffffffffffffffffffffffffffffff16815260200191505060405180910390f35b34801561075357600080fd5b50610788600480360381019080803573ffffffffffffffffffffffffffffffffffffffff169060200190929190505050611644565b6040518082815260200191505060405180910390f35b3480156107aa57600080fd5b506107b36116c8565b6040518080602001828103825283818151815260200191508051906020019080838360005b838110156107f35780820151818401526020810190506107d8565b50505050905090810190601f1680156108205780820380516001836020036101000a031916815260200191505b509250505060405180910390f35b34801561083a57600080fd5b5061084361176a565b6040518080602001828103825283818151815260200191508051906020019080838360005b83811015610883578082015181840152602081019050610868565b50505050905090810190601f1680156108b05780820380516001836020036101000a031916815260200191505b509250505060405180910390f35b3480156108ca57600080fd5b5061090b600480360381019080803573ffffffffffffffffffffffffffffffffffffffff169060200190929190803515159060200190929190505050611808565b005b34801561091957600080fd5b50610a96600480360381019080803590602001908201803590602001908080601f0160208091040260200160405190810160405280939291908181526020018383808284378201915050505050509192919290803590602001908201803590602001908080601f0160208091040260200160405190810160405280939291908181526020018383808284378201915050505050509192919290803590602001908201803590602001908080601f0160208091040260200160405190810160405280939291908181526020018383808284378201915050505050509192919290803590602001908201803590602001908080601f0160208091040260200160405190810160405280939291908181526020018383808284378201915050505050509192919290803590602001908201803590602001908080601f016020809104026020016040519081016040528093929190818152602001838380828437820191505050505050919291929080359060200190929190505050611944565b005b348015610aa457600080fd5b50610b49600480360381019080803573ffffffffffffffffffffffffffffffffffffffff169060200190929190803573ffffffffffffffffffffffffffffffffffffffff16906020019092919080359060200190929190803590602001908201803590602001908080601f0160208091040260200160405190810160405280939291908181526020018383808284378201915050505050509192919290505050611a31565b005b348015610b5757600080fd5b50610b7660048036038101908080359060200190929190505050611a59565b6040518080602001828103825283818151815260200191508051906020019080838360005b83811015610bb6578082015181840152602081019050610b9b565b50505050905090810190601f168015610be35780820380516001836020036101000a031916815260200191505b509250505060405180910390f35b348015610bfd57600080fd5b50610c06611b17565b6040518080602001828103825283818151815260200191508051906020019080838360005b83811015610c46578082015181840152602081019050610c2b565b50505050905090810190601f168015610c735780820380516001836020036101000a031916815260200191505b509250505060405180910390f35b348015610c8d57600080fd5b50610ccc600480360381019080803573ffffffffffffffffffffffffffffffffffffffff16906020019092919080359060200190929190505050611bb9565b005b348015610cda57600080fd5b50610d2f600480360381019080803573ffffffffffffffffffffffffffffffffffffffff169060200190929190803573ffffffffffffffffffffffffffffffffffffffff169060200190929190505050611bdf565b604051808215151515815260200191505060405180910390f35b6000806000837bffffffffffffffffffffffffffffffffffffffffffffffffffffffff19167bffffffffffffffffffffffffffffffffffffffffffffffffffffffff1916815260200190815260200160002060009054906101000a900460ff169050919050565b60086020528060005260406000206000915090505481565b6000610dd382611c73565b1515610dde57600080fd5b6002600083815260200190815260200160002060009054906101000a900473ffffffffffffffffffffffffffffffffffffffff169050919050565b6000610e24826115c6565b90508073ffffffffffffffffffffffffffffffffffffffff168373ffffffffffffffffffffffffffffffffffffffff1614151515610e6157600080fd5b8073ffffffffffffffffffffffffffffffffffffffff163373ffffffffffffffffffffffffffffffffffffffff161480610ea15750610ea08133611bdf565b5b1515610eac57600080fd5b826002600084815260200190815260200160002060006101000a81548173ffffffffffffffffffffffffffffffffffffffff021916908373ffffffffffffffffffffffffffffffffffffffff160217905550818373ffffffffffffffffffffffffffffffffffffffff168273ffffffffffffffffffffffffffffffffffffffff167f8c5be1e5ebec7d5bd14f71427d1e84f3dd0314c0f7b2291e5b200ac8c7c3b92560405160405180910390a4505050565b600080610f6a846115c6565b9150610f75836115c6565b9050610f818285611ce5565b610f8b8184611ce5565b610f958284611e14565b610f9f8185611e14565b50505050565b6007602052806000526040600020600091509050806000018054600181600116156101000203166002900480601f0160208091040260200160405190810160405280929190818152602001828054600181600116156101000203166002900480156110515780601f1061102657610100808354040283529160200191611051565b820191906000526020600020905b81548152906001019060200180831161103457829003601f168201915b505050505090806001018054600181600116156101000203166002900480601f0160208091040260200160405190810160405280929190818152602001828054600181600116156101000203166002900480156110ef5780601f106110c4576101008083540402835291602001916110ef565b820191906000526020600020905b8154815290600101906020018083116110d257829003601f168201915b505050505090806002018054600181600116156101000203166002900480601f01602080910402602001604051908101604052809291908181526020018280546001816001161561010002031660029004801561118d5780601f106111625761010080835404028352916020019161118d565b820191906000526020600020905b81548152906001019060200180831161117057829003601f168201915b505050505090806003018054600181600116156101000203166002900480601f01602080910402602001604051908101604052809291908181526020018280546001816001161561010002031660029004801561122b5780601f106112005761010080835404028352916020019161122b565b820191906000526020600020905b81548152906001019060200180831161120e57829003601f168201915b505050505090806004018054600181600116156101000203166002900480601f0160208091040260200160405190810160405280929190818152602001828054600181600116156101000203166002900480156112c95780601f1061129e576101008083540402835291602001916112c9565b820191906000526020600020905b8154815290600101906020018083116112ac57829003601f168201915b5050505050905085565b6112dd3382611f6e565b15156112e857600080fd5b600073ffffffffffffffffffffffffffffffffffffffff168273ffffffffffffffffffffffffffffffffffffffff161415151561132457600080fd5b61132e8382612003565b6113388382611ce5565b6113428282611e14565b808273ffffffffffffffffffffffffffffffffffffffff168473ffffffffffffffffffffffffffffffffffffffff167fddf252ad1be2c89b69c2b068fc378daa952ba7f163c4a11628f55a4df523b3ef60405160405180910390a4505050565b600080600060086000858152602001908152602001600020541115156113c757600080fd5b600860008481526020019081526020016000205491506113e6836115c6565b90508134101515156113f757600080fd5b6114018184611ce5565b61140b3384611e14565b8073ffffffffffffffffffffffffffffffffffffffff166108fc839081150290604051600060405180830381858888f19350505050158015611451573d6000803e3d6000fd5b50813411156114a4573373ffffffffffffffffffffffffffffffffffffffff166108fc8334039081150290604051600060405180830381858888f193505050501580156114a2573d6000803e3d6000fd5b505b505050565b3373ffffffffffffffffffffffffffffffffffffffff166114c9836115c6565b73ffffffffffffffffffffffffffffffffffffffff161415156114eb57600080fd5b8060086000848152602001908152602001600020819055505050565b6115238383836020604051908101604052806000815250611a31565b505050565b60058054600181600116156101000203166002900480601f0160208091040260200160405190810160405280929190818152602001828054600181600116156101000203166002900480156115be5780601f10611593576101008083540402835291602001916115be565b820191906000526020600020905b8154815290600101906020018083116115a157829003601f168201915b505050505081565b6000806001600084815260200190815260200160002060009054906101000a900473ffffffffffffffffffffffffffffffffffffffff169050600073ffffffffffffffffffffffffffffffffffffffff168173ffffffffffffffffffffffffffffffffffffffff161415151561163b57600080fd5b80915050919050565b60008073ffffffffffffffffffffffffffffffffffffffff168273ffffffffffffffffffffffffffffffffffffffff161415151561168157600080fd5b600360008373ffffffffffffffffffffffffffffffffffffffff1673ffffffffffffffffffffffffffffffffffffffff168152602001908152602001600020549050919050565b606060058054600181600116156101000203166002900480601f0160208091040260200160405190810160405280929190818152602001828054600181600116156101000203166002900480156117605780601f1061173557610100808354040283529160200191611760565b820191906000526020600020905b81548152906001019060200180831161174357829003601f168201915b5050505050905090565b60068054600181600116156101000203166002900480601f0160208091040260200160405190810160405280929190818152602001828054600181600116156101000203166002900480156118005780601f106117d557610100808354040283529160200191611800565b820191906000526020600020905b8154815290600101906020018083116117e357829003601f168201915b505050505081565b3373ffffffffffffffffffffffffffffffffffffffff168273ffffffffffffffffffffffffffffffffffffffff161415151561184357600080fd5b80600460003373ffffffffffffffffffffffffffffffffffffffff1673ffffffffffffffffffffffffffffffffffffffff16815260200190815260200160002060008473ffffffffffffffffffffffffffffffffffffffff1673ffffffffffffffffffffffffffffffffffffffff16815260200190815260200160002060006101000a81548160ff0219169083151502179055508173ffffffffffffffffffffffffffffffffffffffff163373ffffffffffffffffffffffffffffffffffffffff167f17307eab39ab6107e8899845ad3d59bd9653f200f220920489ca2b5937696c3183604051808215151515815260200191505060405180910390a35050565b61194c612423565b60a060405190810160405280888152602001878152602001868152602001858152602001848152509050806007600084815260200190815260200160002060008201518160000190805190602001906119a6929190612453565b5060208201518160010190805190602001906119c3929190612453565b5060408201518160020190805190602001906119e0929190612453565b5060608201518160030190805190602001906119fd929190612453565b506080820151816004019080519060200190611a1a929190612453565b50905050611a283383612106565b50505050505050565b611a3c8484846112d3565b611a48848484846121ac565b1515611a5357600080fd5b50505050565b60606000600760008481526020019081526020016000206000019050808054600181600116156101000203166002900480601f016020809104026020016040519081016040528092919081815260200182805460018160011615610100020316600290048015611b0a5780601f10611adf57610100808354040283529160200191611b0a565b820191906000526020600020905b815481529060010190602001808311611aed57829003601f168201915b5050505050915050919050565b606060068054600181600116156101000203166002900480601f016020809104026020016040519081016040528092919081815260200182805460018160011615610100020316600290048015611baf5780601f10611b8457610100808354040283529160200191611baf565b820191906000526020600020905b815481529060010190602001808311611b9257829003601f168201915b5050505050905090565b6000611bc4826115c6565b9050611bd08183611ce5565b611bda8383611e14565b505050565b6000600460008473ffffffffffffffffffffffffffffffffffffffff1673ffffffffffffffffffffffffffffffffffffffff16815260200190815260200160002060008373ffffffffffffffffffffffffffffffffffffffff1673ffffffffffffffffffffffffffffffffffffffff16815260200190815260200160002060009054906101000a900460ff16905092915050565b6000806001600084815260200190815260200160002060009054906101000a900473ffffffffffffffffffffffffffffffffffffffff169050600073ffffffffffffffffffffffffffffffffffffffff168173ffffffffffffffffffffffffffffffffffffffff161415915050919050565b8173ffffffffffffffffffffffffffffffffffffffff16611d05826115c6565b73ffffffffffffffffffffffffffffffffffffffff16141515611d2757600080fd5b611d7a6001600360008573ffffffffffffffffffffffffffffffffffffffff1673ffffffffffffffffffffffffffffffffffffffff168152602001908152602001600020546123ce90919063ffffffff16565b600360008473ffffffffffffffffffffffffffffffffffffffff1673ffffffffffffffffffffffffffffffffffffffff1681526020019081526020016000208190555060006001600083815260200190815260200160002060006101000a81548173ffffffffffffffffffffffffffffffffffffffff021916908373ffffffffffffffffffffffffffffffffffffffff1602179055505050565b600073ffffffffffffffffffffffffffffffffffffffff166001600083815260200190815260200160002060009054906101000a900473ffffffffffffffffffffffffffffffffffffffff1673ffffffffffffffffffffffffffffffffffffffff16141515611e8257600080fd5b816001600083815260200190815260200160002060006101000a81548173ffffffffffffffffffffffffffffffffffffffff021916908373ffffffffffffffffffffffffffffffffffffffff160217905550611f276001600360008573ffffffffffffffffffffffffffffffffffffffff1673ffffffffffffffffffffffffffffffffffffffff168152602001908152602001600020546123ef90919063ffffffff16565b600360008473ffffffffffffffffffffffffffffffffffffffff1673ffffffffffffffffffffffffffffffffffffffff168152602001908152602001600020819055505050565b600080611f7a836115c6565b90508073ffffffffffffffffffffffffffffffffffffffff168473ffffffffffffffffffffffffffffffffffffffff161480611fe957508373ffffffffffffffffffffffffffffffffffffffff16611fd184610dc8565b73ffffffffffffffffffffffffffffffffffffffff16145b80611ffa5750611ff98185611bdf565b5b91505092915050565b8173ffffffffffffffffffffffffffffffffffffffff16612023826115c6565b73ffffffffffffffffffffffffffffffffffffffff1614151561204557600080fd5b600073ffffffffffffffffffffffffffffffffffffffff166002600083815260200190815260200160002060009054906101000a900473ffffffffffffffffffffffffffffffffffffffff1673ffffffffffffffffffffffffffffffffffffffff161415156121025760006002600083815260200190815260200160002060006101000a81548173ffffffffffffffffffffffffffffffffffffffff021916908373ffffffffffffffffffffffffffffffffffffffff1602179055505b5050565b600073ffffffffffffffffffffffffffffffffffffffff168273ffffffffffffffffffffffffffffffffffffffff161415151561214257600080fd5b61214c8282611e14565b808273ffffffffffffffffffffffffffffffffffffffff16600073ffffffffffffffffffffffffffffffffffffffff167fddf252ad1be2c89b69c2b068fc378daa952ba7f163c4a11628f55a4df523b3ef60405160405180910390a45050565b6000806121ce8573ffffffffffffffffffffffffffffffffffffffff16612410565b15156121dd57600191506123c5565b8473ffffffffffffffffffffffffffffffffffffffff1663150b7a02338887876040518563ffffffff167c0100000000000000000000000000000000000000000000000000000000028152600401808573ffffffffffffffffffffffffffffffffffffffff1673ffffffffffffffffffffffffffffffffffffffff1681526020018473ffffffffffffffffffffffffffffffffffffffff1673ffffffffffffffffffffffffffffffffffffffff16815260200183815260200180602001828103825283818151815260200191508051906020019080838360005b838110156122d25780820151818401526020810190506122b7565b50505050905090810190601f1680156122ff5780820380516001836020036101000a031916815260200191505b5095505050505050602060405180830381600087803b15801561232157600080fd5b505af1158015612335573d6000803e3d6000fd5b505050506040513d602081101561234b57600080fd5b8101908080519060200190929190505050905063150b7a027c0100000000000000000000000000000000000000000000000000000000027bffffffffffffffffffffffffffffffffffffffffffffffffffffffff1916817bffffffffffffffffffffffffffffffffffffffffffffffffffffffff19161491505b50949350505050565b6000808383111515156123e057600080fd5b82840390508091505092915050565b600080828401905083811015151561240657600080fd5b8091505092915050565b600080823b905060008111915050919050565b60a06040519081016040528060608152602001606081526020016060815260200160608152602001606081525090565b828054600181600116156101000203166002900490600052602060002090601f016020900481019282601f1061249457805160ff19168380011785556124c2565b828001600101855582156124c2579182015b828111156124c15782518255916020019190600101906124a6565b5b5090506124cf91906124d3565b5090565b6124f591905b808211156124f15760008160009055506001016124d9565b5090565b905600a165627a7a7230582050c6a12bffa6679c07f318132fd3d3b7a4ea2640c421fb75c636f8e92023ae5f0029",
  "source": "pragma solidity ^0.4.24;\nimport \"openzeppelin-solidity/contracts/token/ERC721/ERC721.sol\";\n\n    contract StarNotary is ERC721 { \n\n        struct Star { \n            string name; \n            string ra;\n            string dec;\n            string mag;\n            string story;\n        }\n       \n       string public  named =  \"ErnestoBMToken\";\n       string public  symbol = \"EBM\";\n\n        mapping (uint256 => Star) public tokenIdToStarInfo; \n        mapping (uint256 => uint256) public starsForSale;\n\n        function createStar(string na, string dec, string mag, string cent, string story, uint256 _tokenId) public {\n        Star memory newStar = Star(na, dec, mag, cent, story);\n        tokenIdToStarInfo[_tokenId] = newStar;\n        _mint(msg.sender, _tokenId);\n        }\n\n        function getTokenName() public view  returns(string ) {\n        return named;\n        }\n\n         function getSymbolName() public view returns (string ) {\n         return symbol;\n        }\n\n  \n        function putStarUpForSale(uint256 _tokenId, uint256 _price) public { \n            require(ownerOf(_tokenId) == msg.sender);\n\n            starsForSale[_tokenId] = _price;\n        }\n\n        function buyStar(uint256 _tokenId) public payable { \n            require(starsForSale[_tokenId] > 0);\n\n            uint256 starCost = starsForSale[_tokenId];\n            address starOwner = ownerOf(_tokenId);\n            require(msg.value >= starCost);\n\n            _removeTokenFrom(starOwner, _tokenId);\n            _addTokenTo(msg.sender, _tokenId);\n\n            starOwner.transfer(starCost);\n\n            if(msg.value > starCost) { \n                msg.sender.transfer(msg.value - starCost);\n            }\n        }\n\n    /*\n    *\n    @dev Looks up the stars using the Token ID\n    *\n    @param uint256 _tokenId \n    *\n    @return a name star\n    *\n    */\n\n    function lookUptokenIdToStarInfo(uint256 _tokenId) public view returns(string) {\n        string storage nam = tokenIdToStarInfo[_tokenId].name;\n        return nam;\n    }\n\n\n    /*\n    * @description 2 users can exchange their stars tokens\n    * @param _tokenId \n    * @param  _tokenId1\n    **\n    */\n        function exchangeStars(uint256 _tokenId, uint256 _tokenId1)public  {\n            address owner = ownerOf(_tokenId);\n            address owner1 = ownerOf(_tokenId1);\n            \n            _removeTokenFrom(owner, _tokenId);\n            _removeTokenFrom(owner1, _tokenId1);\n\n            _addTokenTo(owner, _tokenId1);\n            _addTokenTo(owner1, _tokenId);\n\n        }\n    /*\n    *@dev Transfer a star from the address of the caller\n    *\n    **@param uint256 address the address to transfer the star to\n    *@param  uint256 _tokenId  token ID of the star\n    **\n    */\n        function transferStar(address addressReceiver, uint256 _tokenId) public  {\n        \n        address sender = ownerOf(_tokenId);\n        _removeTokenFrom(sender, _tokenId);\n        _addTokenTo(addressReceiver, _tokenId);\n        // _removeTokenFrom(sender, addressReceiver, _tokenId);\n\n        }\n    }\n",
  "sourcePath": "/home/ebonet/www/daap_star_notary/contracts/StarNotary.sol",
  "compiler": {
    "name": "solc",
    "version": "0.4.24+commit.e67f0147.Emscripten.clang"
  },
  "schemaVersion": "2.0.1",
  "updatedAt": "2019-01-17T01:15:33.984Z"
}