{
  "contractName": "StarNotary",
  "abi": [
    {
      "constant": true,
      "inputs": [
        {
          "name": "interfaceId",
          "type": "bytes4"
        }
      ],
      "name": "supportsInterface",
      "outputs": [
        {
          "name": "",
          "type": "bool"
        }
      ],
      "payable": false,
      "stateMutability": "view",
      "type": "function"
    },
    {
      "constant": true,
      "inputs": [
        {
          "name": "",
          "type": "uint256"
        }
      ],
      "name": "starsForSale",
      "outputs": [
        {
          "name": "",
          "type": "uint256"
        }
      ],
      "payable": false,
      "stateMutability": "view",
      "type": "function"
    },
    {
      "constant": true,
      "inputs": [],
      "name": "name",
      "outputs": [
        {
          "name": "",
          "type": "string"
        }
      ],
      "payable": false,
      "stateMutability": "view",
      "type": "function"
    },
    {
      "constant": true,
      "inputs": [
        {
          "name": "tokenId",
          "type": "uint256"
        }
      ],
      "name": "getApproved",
      "outputs": [
        {
          "name": "",
          "type": "address"
        }
      ],
      "payable": false,
      "stateMutability": "view",
      "type": "function"
    },
    {
      "constant": false,
      "inputs": [
        {
          "name": "to",
          "type": "address"
        },
        {
          "name": "tokenId",
          "type": "uint256"
        }
      ],
      "name": "approve",
      "outputs": [],
      "payable": false,
      "stateMutability": "nonpayable",
      "type": "function"
    },
    {
      "constant": true,
      "inputs": [
        {
          "name": "",
          "type": "uint256"
        }
      ],
      "name": "tokenIdToStarInfo",
      "outputs": [
        {
          "name": "named",
          "type": "string"
        },
        {
          "name": "ra",
          "type": "string"
        },
        {
          "name": "dec",
          "type": "string"
        },
        {
          "name": "mag",
          "type": "string"
        },
        {
          "name": "cen",
          "type": "string"
        },
        {
          "name": "story",
          "type": "string"
        }
      ],
      "payable": false,
      "stateMutability": "view",
      "type": "function"
    },
    {
      "constant": false,
      "inputs": [
        {
          "name": "from",
          "type": "address"
        },
        {
          "name": "to",
          "type": "address"
        },
        {
          "name": "tokenId",
          "type": "uint256"
        }
      ],
      "name": "transferFrom",
      "outputs": [],
      "payable": false,
      "stateMutability": "nonpayable",
      "type": "function"
    },
    {
      "constant": false,
      "inputs": [
        {
          "name": "from",
          "type": "address"
        },
        {
          "name": "to",
          "type": "address"
        },
        {
          "name": "tokenId",
          "type": "uint256"
        }
      ],
      "name": "safeTransferFrom",
      "outputs": [],
      "payable": false,
      "stateMutability": "nonpayable",
      "type": "function"
    },
    {
      "constant": true,
      "inputs": [
        {
          "name": "tokenId",
          "type": "uint256"
        }
      ],
      "name": "ownerOf",
      "outputs": [
        {
          "name": "",
          "type": "address"
        }
      ],
      "payable": false,
      "stateMutability": "view",
      "type": "function"
    },
    {
      "constant": true,
      "inputs": [
        {
          "name": "owner",
          "type": "address"
        }
      ],
      "name": "balanceOf",
      "outputs": [
        {
          "name": "",
          "type": "uint256"
        }
      ],
      "payable": false,
      "stateMutability": "view",
      "type": "function"
    },
    {
      "constant": true,
      "inputs": [],
      "name": "symbol",
      "outputs": [
        {
          "name": "",
          "type": "string"
        }
      ],
      "payable": false,
      "stateMutability": "view",
      "type": "function"
    },
    {
      "constant": false,
      "inputs": [
        {
          "name": "to",
          "type": "address"
        },
        {
          "name": "approved",
          "type": "bool"
        }
      ],
      "name": "setApprovalForAll",
      "outputs": [],
      "payable": false,
      "stateMutability": "nonpayable",
      "type": "function"
    },
    {
      "constant": false,
      "inputs": [
        {
          "name": "from",
          "type": "address"
        },
        {
          "name": "to",
          "type": "address"
        },
        {
          "name": "tokenId",
          "type": "uint256"
        },
        {
          "name": "_data",
          "type": "bytes"
        }
      ],
      "name": "safeTransferFrom",
      "outputs": [],
      "payable": false,
      "stateMutability": "nonpayable",
      "type": "function"
    },
    {
      "constant": true,
      "inputs": [
        {
          "name": "owner",
          "type": "address"
        },
        {
          "name": "operator",
          "type": "address"
        }
      ],
      "name": "isApprovedForAll",
      "outputs": [
        {
          "name": "",
          "type": "bool"
        }
      ],
      "payable": false,
      "stateMutability": "view",
      "type": "function"
    },
    {
      "anonymous": false,
      "inputs": [
        {
          "indexed": true,
          "name": "from",
          "type": "address"
        },
        {
          "indexed": true,
          "name": "to",
          "type": "address"
        },
        {
          "indexed": true,
          "name": "tokenId",
          "type": "uint256"
        }
      ],
      "name": "Transfer",
      "type": "event"
    },
    {
      "anonymous": false,
      "inputs": [
        {
          "indexed": true,
          "name": "owner",
          "type": "address"
        },
        {
          "indexed": true,
          "name": "approved",
          "type": "address"
        },
        {
          "indexed": true,
          "name": "tokenId",
          "type": "uint256"
        }
      ],
      "name": "Approval",
      "type": "event"
    },
    {
      "anonymous": false,
      "inputs": [
        {
          "indexed": true,
          "name": "owner",
          "type": "address"
        },
        {
          "indexed": true,
          "name": "operator",
          "type": "address"
        },
        {
          "indexed": false,
          "name": "approved",
          "type": "bool"
        }
      ],
      "name": "ApprovalForAll",
      "type": "event"
    },
    {
      "constant": false,
      "inputs": [
        {
          "name": "_name",
          "type": "string"
        },
        {
          "name": "_ra",
          "type": "string"
        },
        {
          "name": "_dec",
          "type": "string"
        },
        {
          "name": "_mag",
          "type": "string"
        },
        {
          "name": "_cent",
          "type": "string"
        },
        {
          "name": "_story",
          "type": "string"
        },
        {
          "name": "_tokenId",
          "type": "uint256"
        }
      ],
      "name": "createStar",
      "outputs": [],
      "payable": false,
      "stateMutability": "nonpayable",
      "type": "function"
    },
    {
      "constant": true,
      "inputs": [],
      "name": "getTokenName",
      "outputs": [
        {
          "name": "",
          "type": "string"
        }
      ],
      "payable": false,
      "stateMutability": "pure",
      "type": "function"
    },
    {
      "constant": true,
      "inputs": [],
      "name": "getSymbolName",
      "outputs": [
        {
          "name": "",
          "type": "string"
        }
      ],
      "payable": false,
      "stateMutability": "pure",
      "type": "function"
    },
    {
      "constant": false,
      "inputs": [
        {
          "name": "_tokenId",
          "type": "uint256"
        },
        {
          "name": "_price",
          "type": "uint256"
        }
      ],
      "name": "putStarUpForSale",
      "outputs": [],
      "payable": false,
      "stateMutability": "nonpayable",
      "type": "function"
    },
    {
      "constant": false,
      "inputs": [
        {
          "name": "_tokenId",
          "type": "uint256"
        }
      ],
      "name": "buyStar",
      "outputs": [],
      "payable": true,
      "stateMutability": "payable",
      "type": "function"
    },
    {
      "constant": true,
      "inputs": [
        {
          "name": "_tokenId",
          "type": "uint256"
        }
      ],
      "name": "lookUptokenIdToStarInfo",
      "outputs": [
        {
          "name": "",
          "type": "string"
        }
      ],
      "payable": false,
      "stateMutability": "view",
      "type": "function"
    },
    {
      "constant": false,
      "inputs": [
        {
          "name": "_tokenId",
          "type": "uint256"
        },
        {
          "name": "_tokenId1",
          "type": "uint256"
        }
      ],
      "name": "exchangeStars",
      "outputs": [],
      "payable": false,
      "stateMutability": "nonpayable",
      "type": "function"
    },
    {
      "constant": false,
      "inputs": [
        {
          "name": "addressReceiver",
          "type": "address"
        },
        {
          "name": "_tokenId",
          "type": "uint256"
        }
      ],
      "name": "transferStar",
      "outputs": [],
      "payable": false,
      "stateMutability": "nonpayable",
      "type": "function"
    }
  ],
  "bytecode": "0x6080604052620000416301ffc9a77c01000000000000000000000000000000000000000000000000000000000262000084640100000000026401000000009004565b6200007e6380ac58cd7c01000000000000000000000000000000000000000000000000000000000262000084640100000000026401000000009004565b62000142565b63ffffffff7c010000000000000000000000000000000000000000000000000000000002817bffffffffffffffffffffffffffffffffffffffffffffffffffffffff191614151515620000d657600080fd5b6001600080837bffffffffffffffffffffffffffffffffffffffffffffffffffffffff19167bffffffffffffffffffffffffffffffffffffffffffffffffffffffff1916815260200190815260200160002060006101000a81548160ff02191690831515021790555050565b61254d80620001526000396000f300608060405260043610610128576000357c0100000000000000000000000000000000000000000000000000000000900463ffffffff16806301ffc9a71461012d5780630564b1301461019157806306fdde03146101d2578063081812fc14610262578063095ea7b3146102cf57806315e0afa51461031c5780631967fd981461035357806323b872dd14610615578063244bbc5c146106825780632f1c34ef14610853578063316a43611461087357806342842e0e146108aa5780636352211e1461091757806370a0823114610984578063862b092b146109db57806395d89b4114610a6b578063a22cb46514610afb578063b88d4fde14610b4a578063d7830ccb14610bfd578063e2ffb7fb14610ca3578063e7152a5c14610d33578063e985e9c514610d80575b600080fd5b34801561013957600080fd5b5061017760048036038101908080357bffffffffffffffffffffffffffffffffffffffffffffffffffffffff19169060200190929190505050610dfb565b604051808215151515815260200191505060405180910390f35b34801561019d57600080fd5b506101bc60048036038101908080359060200190929190505050610e62565b6040518082815260200191505060405180910390f35b3480156101de57600080fd5b506101e7610e7a565b6040518080602001828103825283818151815260200191508051906020019080838360005b8381101561022757808201518184015260208101905061020c565b50505050905090810190601f1680156102545780820380516001836020036101000a031916815260200191505b509250505060405180910390f35b34801561026e57600080fd5b5061028d60048036038101908080359060200190929190505050610eb3565b604051808273ffffffffffffffffffffffffffffffffffffffff1673ffffffffffffffffffffffffffffffffffffffff16815260200191505060405180910390f35b3480156102db57600080fd5b5061031a600480360381019080803573ffffffffffffffffffffffffffffffffffffffff16906020019092919080359060200190929190505050610f04565b005b34801561032857600080fd5b506103516004803603810190808035906020019092919080359060200190929190505050611049565b005b34801561035f57600080fd5b5061037e60048036038101908080359060200190929190505050611090565b6040518080602001806020018060200180602001806020018060200187810387528d818151815260200191508051906020019080838360005b838110156103d25780820151818401526020810190506103b7565b50505050905090810190601f1680156103ff5780820380516001836020036101000a031916815260200191505b5087810386528c818151815260200191508051906020019080838360005b8381101561043857808201518184015260208101905061041d565b50505050905090810190601f1680156104655780820380516001836020036101000a031916815260200191505b5087810385528b818151815260200191508051906020019080838360005b8381101561049e578082015181840152602081019050610483565b50505050905090810190601f1680156104cb5780820380516001836020036101000a031916815260200191505b5087810384528a818151815260200191508051906020019080838360005b838110156105045780820151818401526020810190506104e9565b50505050905090810190601f1680156105315780820380516001836020036101000a031916815260200191505b50878103835289818151815260200191508051906020019080838360005b8381101561056a57808201518184015260208101905061054f565b50505050905090810190601f1680156105975780820380516001836020036101000a031916815260200191505b50878103825288818151815260200191508051906020019080838360005b838110156105d05780820151818401526020810190506105b5565b50505050905090810190601f1680156105fd5780820380516001836020036101000a031916815260200191505b509c5050505050505050505050505060405180910390f35b34801561062157600080fd5b50610680600480360381019080803573ffffffffffffffffffffffffffffffffffffffff169060200190929190803573ffffffffffffffffffffffffffffffffffffffff1690602001909291908035906020019092919050505061145c565b005b34801561068e57600080fd5b50610851600480360381019080803590602001908201803590602001908080601f0160208091040260200160405190810160405280939291908181526020018383808284378201915050505050509192919290803590602001908201803590602001908080601f0160208091040260200160405190810160405280939291908181526020018383808284378201915050505050509192919290803590602001908201803590602001908080601f0160208091040260200160405190810160405280939291908181526020018383808284378201915050505050509192919290803590602001908201803590602001908080601f0160208091040260200160405190810160405280939291908181526020018383808284378201915050505050509192919290803590602001908201803590602001908080601f0160208091040260200160405190810160405280939291908181526020018383808284378201915050505050509192919290803590602001908201803590602001908080601f01602080910402602001604051908101604052809392919081815260200183838082843782019150505050505091929192908035906020019092919050505061152b565b005b6108716004803603810190808035906020019092919050505061163c565b005b34801561087f57600080fd5b506108a86004803603810190808035906020019092919080359060200190929190505050611743565b005b3480156108b657600080fd5b50610915600480360381019080803573ffffffffffffffffffffffffffffffffffffffff169060200190929190803573ffffffffffffffffffffffffffffffffffffffff169060200190929190803590602001909291905050506117a1565b005b34801561092357600080fd5b50610942600480360381019080803590602001909291905050506117c2565b604051808273ffffffffffffffffffffffffffffffffffffffff1673ffffffffffffffffffffffffffffffffffffffff16815260200191505060405180910390f35b34801561099057600080fd5b506109c5600480360381019080803573ffffffffffffffffffffffffffffffffffffffff169060200190929190505050611840565b6040518082815260200191505060405180910390f35b3480156109e757600080fd5b506109f06118c4565b6040518080602001828103825283818151815260200191508051906020019080838360005b83811015610a30578082015181840152602081019050610a15565b50505050905090810190601f168015610a5d5780820380516001836020036101000a031916815260200191505b509250505060405180910390f35b348015610a7757600080fd5b50610a80611901565b6040518080602001828103825283818151815260200191508051906020019080838360005b83811015610ac0578082015181840152602081019050610aa5565b50505050905090810190601f168015610aed5780820380516001836020036101000a031916815260200191505b509250505060405180910390f35b348015610b0757600080fd5b50610b48600480360381019080803573ffffffffffffffffffffffffffffffffffffffff16906020019092919080351515906020019092919050505061193a565b005b348015610b5657600080fd5b50610bfb600480360381019080803573ffffffffffffffffffffffffffffffffffffffff169060200190929190803573ffffffffffffffffffffffffffffffffffffffff16906020019092919080359060200190929190803590602001908201803590602001908080601f0160208091040260200160405190810160405280939291908181526020018383808284378201915050505050509192919290505050611a76565b005b348015610c0957600080fd5b50610c2860048036038101908080359060200190929190505050611a9e565b6040518080602001828103825283818151815260200191508051906020019080838360005b83811015610c68578082015181840152602081019050610c4d565b50505050905090810190601f168015610c955780820380516001836020036101000a031916815260200191505b509250505060405180910390f35b348015610caf57600080fd5b50610cb8611b9e565b6040518080602001828103825283818151815260200191508051906020019080838360005b83811015610cf8578082015181840152602081019050610cdd565b50505050905090810190601f168015610d255780820380516001836020036101000a031916815260200191505b509250505060405180910390f35b348015610d3f57600080fd5b50610d7e600480360381019080803573ffffffffffffffffffffffffffffffffffffffff16906020019092919080359060200190929190505050611bdb565b005b348015610d8c57600080fd5b50610de1600480360381019080803573ffffffffffffffffffffffffffffffffffffffff169060200190929190803573ffffffffffffffffffffffffffffffffffffffff169060200190929190505050611c01565b604051808215151515815260200191505060405180910390f35b6000806000837bffffffffffffffffffffffffffffffffffffffffffffffffffffffff19167bffffffffffffffffffffffffffffffffffffffffffffffffffffffff1916815260200190815260200160002060009054906101000a900460ff169050919050565b60066020528060005260406000206000915090505481565b6040805190810160405280600f81526020017f45726e6573746f424d20546f6b656e000000000000000000000000000000000081525081565b6000610ebe82611c95565b1515610ec957600080fd5b6002600083815260200190815260200160002060009054906101000a900473ffffffffffffffffffffffffffffffffffffffff169050919050565b6000610f0f826117c2565b90508073ffffffffffffffffffffffffffffffffffffffff168373ffffffffffffffffffffffffffffffffffffffff1614151515610f4c57600080fd5b8073ffffffffffffffffffffffffffffffffffffffff163373ffffffffffffffffffffffffffffffffffffffff161480610f8c5750610f8b8133611c01565b5b1515610f9757600080fd5b826002600084815260200190815260200160002060006101000a81548173ffffffffffffffffffffffffffffffffffffffff021916908373ffffffffffffffffffffffffffffffffffffffff160217905550818373ffffffffffffffffffffffffffffffffffffffff168273ffffffffffffffffffffffffffffffffffffffff167f8c5be1e5ebec7d5bd14f71427d1e84f3dd0314c0f7b2291e5b200ac8c7c3b92560405160405180910390a4505050565b600080611055846117c2565b9150611060836117c2565b905061106c8285611d07565b6110768184611d07565b6110808284611e36565b61108a8185611e36565b50505050565b6005602052806000526040600020600091509050806000018054600181600116156101000203166002900480601f01602080910402602001604051908101604052809291908181526020018280546001816001161561010002031660029004801561113c5780601f106111115761010080835404028352916020019161113c565b820191906000526020600020905b81548152906001019060200180831161111f57829003601f168201915b505050505090806001018054600181600116156101000203166002900480601f0160208091040260200160405190810160405280929190818152602001828054600181600116156101000203166002900480156111da5780601f106111af576101008083540402835291602001916111da565b820191906000526020600020905b8154815290600101906020018083116111bd57829003601f168201915b505050505090806002018054600181600116156101000203166002900480601f0160208091040260200160405190810160405280929190818152602001828054600181600116156101000203166002900480156112785780601f1061124d57610100808354040283529160200191611278565b820191906000526020600020905b81548152906001019060200180831161125b57829003601f168201915b505050505090806003018054600181600116156101000203166002900480601f0160208091040260200160405190810160405280929190818152602001828054600181600116156101000203166002900480156113165780601f106112eb57610100808354040283529160200191611316565b820191906000526020600020905b8154815290600101906020018083116112f957829003601f168201915b505050505090806004018054600181600116156101000203166002900480601f0160208091040260200160405190810160405280929190818152602001828054600181600116156101000203166002900480156113b45780601f10611389576101008083540402835291602001916113b4565b820191906000526020600020905b81548152906001019060200180831161139757829003601f168201915b505050505090806005018054600181600116156101000203166002900480601f0160208091040260200160405190810160405280929190818152602001828054600181600116156101000203166002900480156114525780601f1061142757610100808354040283529160200191611452565b820191906000526020600020905b81548152906001019060200180831161143557829003601f168201915b5050505050905086565b6114663382611f90565b151561147157600080fd5b600073ffffffffffffffffffffffffffffffffffffffff168273ffffffffffffffffffffffffffffffffffffffff16141515156114ad57600080fd5b6114b78382612025565b6114c18382611d07565b6114cb8282611e36565b808273ffffffffffffffffffffffffffffffffffffffff168473ffffffffffffffffffffffffffffffffffffffff167fddf252ad1be2c89b69c2b068fc378daa952ba7f163c4a11628f55a4df523b3ef60405160405180910390a4505050565b611533612445565b60c0604051908101604052808981526020018881526020018781526020018681526020018581526020018481525090508060056000848152602001908152602001600020600082015181600001908051906020019061159392919061247c565b5060208201518160010190805190602001906115b092919061247c565b5060408201518160020190805190602001906115cd92919061247c565b5060608201518160030190805190602001906115ea92919061247c565b50608082015181600401908051906020019061160792919061247c565b5060a082015181600501908051906020019061162492919061247c565b509050506116323383612128565b5050505050505050565b6000806000600660008581526020019081526020016000205411151561166157600080fd5b60066000848152602001908152602001600020549150611680836117c2565b905081341015151561169157600080fd5b61169b8184611d07565b6116a53384611e36565b8073ffffffffffffffffffffffffffffffffffffffff166108fc839081150290604051600060405180830381858888f193505050501580156116eb573d6000803e3d6000fd5b508134111561173e573373ffffffffffffffffffffffffffffffffffffffff166108fc8334039081150290604051600060405180830381858888f1935050505015801561173c573d6000803e3d6000fd5b505b505050565b3373ffffffffffffffffffffffffffffffffffffffff16611763836117c2565b73ffffffffffffffffffffffffffffffffffffffff1614151561178557600080fd5b8060066000848152602001908152602001600020819055505050565b6117bd8383836020604051908101604052806000815250611a76565b505050565b6000806001600084815260200190815260200160002060009054906101000a900473ffffffffffffffffffffffffffffffffffffffff169050600073ffffffffffffffffffffffffffffffffffffffff168173ffffffffffffffffffffffffffffffffffffffff161415151561183757600080fd5b80915050919050565b60008073ffffffffffffffffffffffffffffffffffffffff168273ffffffffffffffffffffffffffffffffffffffff161415151561187d57600080fd5b600360008373ffffffffffffffffffffffffffffffffffffffff1673ffffffffffffffffffffffffffffffffffffffff168152602001908152602001600020549050919050565b60606040805190810160405280600f81526020017f45726e6573746f424d20546f6b656e0000000000000000000000000000000000815250905090565b6040805190810160405280600381526020017f45424d000000000000000000000000000000000000000000000000000000000081525081565b3373ffffffffffffffffffffffffffffffffffffffff168273ffffffffffffffffffffffffffffffffffffffff161415151561197557600080fd5b80600460003373ffffffffffffffffffffffffffffffffffffffff1673ffffffffffffffffffffffffffffffffffffffff16815260200190815260200160002060008473ffffffffffffffffffffffffffffffffffffffff1673ffffffffffffffffffffffffffffffffffffffff16815260200190815260200160002060006101000a81548160ff0219169083151502179055508173ffffffffffffffffffffffffffffffffffffffff163373ffffffffffffffffffffffffffffffffffffffff167f17307eab39ab6107e8899845ad3d59bd9653f200f220920489ca2b5937696c3183604051808215151515815260200191505060405180910390a35050565b611a8184848461145c565b611a8d848484846121ce565b1515611a9857600080fd5b50505050565b606060003373ffffffffffffffffffffffffffffffffffffffff16611ac2846117c2565b73ffffffffffffffffffffffffffffffffffffffff16141515611ae457600080fd5b600560008481526020019081526020016000206000019050808054600181600116156101000203166002900480601f016020809104026020016040519081016040528092919081815260200182805460018160011615610100020316600290048015611b915780601f10611b6657610100808354040283529160200191611b91565b820191906000526020600020905b815481529060010190602001808311611b7457829003601f168201915b5050505050915050919050565b60606040805190810160405280600381526020017f45424d0000000000000000000000000000000000000000000000000000000000815250905090565b6000611be6826117c2565b9050611bf28183611d07565b611bfc8383611e36565b505050565b6000600460008473ffffffffffffffffffffffffffffffffffffffff1673ffffffffffffffffffffffffffffffffffffffff16815260200190815260200160002060008373ffffffffffffffffffffffffffffffffffffffff1673ffffffffffffffffffffffffffffffffffffffff16815260200190815260200160002060009054906101000a900460ff16905092915050565b6000806001600084815260200190815260200160002060009054906101000a900473ffffffffffffffffffffffffffffffffffffffff169050600073ffffffffffffffffffffffffffffffffffffffff168173ffffffffffffffffffffffffffffffffffffffff161415915050919050565b8173ffffffffffffffffffffffffffffffffffffffff16611d27826117c2565b73ffffffffffffffffffffffffffffffffffffffff16141515611d4957600080fd5b611d9c6001600360008573ffffffffffffffffffffffffffffffffffffffff1673ffffffffffffffffffffffffffffffffffffffff168152602001908152602001600020546123f090919063ffffffff16565b600360008473ffffffffffffffffffffffffffffffffffffffff1673ffffffffffffffffffffffffffffffffffffffff1681526020019081526020016000208190555060006001600083815260200190815260200160002060006101000a81548173ffffffffffffffffffffffffffffffffffffffff021916908373ffffffffffffffffffffffffffffffffffffffff1602179055505050565b600073ffffffffffffffffffffffffffffffffffffffff166001600083815260200190815260200160002060009054906101000a900473ffffffffffffffffffffffffffffffffffffffff1673ffffffffffffffffffffffffffffffffffffffff16141515611ea457600080fd5b816001600083815260200190815260200160002060006101000a81548173ffffffffffffffffffffffffffffffffffffffff021916908373ffffffffffffffffffffffffffffffffffffffff160217905550611f496001600360008573ffffffffffffffffffffffffffffffffffffffff1673ffffffffffffffffffffffffffffffffffffffff1681526020019081526020016000205461241190919063ffffffff16565b600360008473ffffffffffffffffffffffffffffffffffffffff1673ffffffffffffffffffffffffffffffffffffffff168152602001908152602001600020819055505050565b600080611f9c836117c2565b90508073ffffffffffffffffffffffffffffffffffffffff168473ffffffffffffffffffffffffffffffffffffffff16148061200b57508373ffffffffffffffffffffffffffffffffffffffff16611ff384610eb3565b73ffffffffffffffffffffffffffffffffffffffff16145b8061201c575061201b8185611c01565b5b91505092915050565b8173ffffffffffffffffffffffffffffffffffffffff16612045826117c2565b73ffffffffffffffffffffffffffffffffffffffff1614151561206757600080fd5b600073ffffffffffffffffffffffffffffffffffffffff166002600083815260200190815260200160002060009054906101000a900473ffffffffffffffffffffffffffffffffffffffff1673ffffffffffffffffffffffffffffffffffffffff161415156121245760006002600083815260200190815260200160002060006101000a81548173ffffffffffffffffffffffffffffffffffffffff021916908373ffffffffffffffffffffffffffffffffffffffff1602179055505b5050565b600073ffffffffffffffffffffffffffffffffffffffff168273ffffffffffffffffffffffffffffffffffffffff161415151561216457600080fd5b61216e8282611e36565b808273ffffffffffffffffffffffffffffffffffffffff16600073ffffffffffffffffffffffffffffffffffffffff167fddf252ad1be2c89b69c2b068fc378daa952ba7f163c4a11628f55a4df523b3ef60405160405180910390a45050565b6000806121f08573ffffffffffffffffffffffffffffffffffffffff16612432565b15156121ff57600191506123e7565b8473ffffffffffffffffffffffffffffffffffffffff1663150b7a02338887876040518563ffffffff167c0100000000000000000000000000000000000000000000000000000000028152600401808573ffffffffffffffffffffffffffffffffffffffff1673ffffffffffffffffffffffffffffffffffffffff1681526020018473ffffffffffffffffffffffffffffffffffffffff1673ffffffffffffffffffffffffffffffffffffffff16815260200183815260200180602001828103825283818151815260200191508051906020019080838360005b838110156122f45780820151818401526020810190506122d9565b50505050905090810190601f1680156123215780820380516001836020036101000a031916815260200191505b5095505050505050602060405180830381600087803b15801561234357600080fd5b505af1158015612357573d6000803e3d6000fd5b505050506040513d602081101561236d57600080fd5b8101908080519060200190929190505050905063150b7a027c0100000000000000000000000000000000000000000000000000000000027bffffffffffffffffffffffffffffffffffffffffffffffffffffffff1916817bffffffffffffffffffffffffffffffffffffffffffffffffffffffff19161491505b50949350505050565b60008083831115151561240257600080fd5b82840390508091505092915050565b600080828401905083811015151561242857600080fd5b8091505092915050565b600080823b905060008111915050919050565b60c0604051908101604052806060815260200160608152602001606081526020016060815260200160608152602001606081525090565b828054600181600116156101000203166002900490600052602060002090601f016020900481019282601f106124bd57805160ff19168380011785556124eb565b828001600101855582156124eb579182015b828111156124ea5782518255916020019190600101906124cf565b5b5090506124f891906124fc565b5090565b61251e91905b8082111561251a576000816000905550600101612502565b5090565b905600a165627a7a72305820e04dd2b8d8295d1bc114162dc7e1dabaf93a800c55820be21bcc15106b8ff9510029",
  "source": "pragma solidity ^0.4.24;\nimport \"openzeppelin-solidity/contracts/token/ERC721/ERC721.sol\";\n\n    contract StarNotary is ERC721 { \n\n        struct Star { \n            string named; \n            string ra;\n            string dec;\n            string mag;\n            string cen;\n            string story;\n   \n        }\n       \n       string public constant  name =  \"ErnestoBM Token\";\n       string public constant  symbol = \"EBM\";\n\n        mapping (uint256 => Star) public tokenIdToStarInfo; \n        mapping (uint256 => uint256) public starsForSale;\n\n        function createStar(string _name, string _ra, string _dec, string _mag, string _cent, string _story, uint256 _tokenId) public {\n        Star memory newStar = Star(_name, _ra, _dec, _mag, _cent, _story);\n        tokenIdToStarInfo[_tokenId] = newStar;\n        _mint(msg.sender, _tokenId);\n        }\n\n        function getTokenName() public pure  returns(string ) {\n        return name;\n        }\n\n         function getSymbolName() public pure returns (string ) {\n         return symbol;\n        }\n\n  \n        function putStarUpForSale(uint256 _tokenId, uint256 _price) public { \n            require(ownerOf(_tokenId) == msg.sender);\n\n            starsForSale[_tokenId] = _price;\n        }\n\n        function buyStar(uint256 _tokenId) public payable { \n            require(starsForSale[_tokenId] > 0);\n\n            uint256 starCost = starsForSale[_tokenId];\n            address starOwner = ownerOf(_tokenId);\n            require(msg.value >= starCost);\n\n            _removeTokenFrom(starOwner, _tokenId);\n            _addTokenTo(msg.sender, _tokenId);\n\n            starOwner.transfer(starCost);\n\n            if(msg.value > starCost) { \n                msg.sender.transfer(msg.value - starCost);\n            }\n        }\n\n    /*\n    *\n    @dev Looks up the stars using the Token ID\n    *\n    @param uint256 _tokenId \n    *\n    @return a name star\n    *\n    */\n\n    function lookUptokenIdToStarInfo(uint256 _tokenId) public view returns(string) {\n        require(ownerOf(_tokenId) == msg.sender);\n        string storage nam = tokenIdToStarInfo[_tokenId].named;\n        return nam;\n    }\n\n\n    /*\n    * @description 2 users can exchange their stars tokens\n    * @param _tokenId \n    * @param  _tokenId1\n    **\n    */\n        function exchangeStars(uint256 _tokenId, uint256 _tokenId1)public  {\n            address owner = ownerOf(_tokenId);\n            address owner1 = ownerOf(_tokenId1);\n            \n            _removeTokenFrom(owner, _tokenId);\n            _removeTokenFrom(owner1, _tokenId1);\n\n            _addTokenTo(owner, _tokenId1);\n            _addTokenTo(owner1, _tokenId);\n\n        }\n    /*\n    *@dev Transfer a star from the address of the caller\n    *\n    **@param uint256 address the address to transfer the star to\n    *@param  uint256 _tokenId  token ID of the star\n    **\n    */\n        function transferStar(address addressReceiver, uint256 _tokenId) public  {\n        \n        address sender = ownerOf(_tokenId);\n        _removeTokenFrom(sender, _tokenId);\n        _addTokenTo(addressReceiver, _tokenId);\n        // _removeTokenFrom(sender, addressReceiver, _tokenId);\n\n        }\n    }\n ",
  "sourcePath": "/home/ebonet/www/daap_star_notary/contracts/StarNotary.sol",
  "compiler": {
    "name": "solc",
    "version": "0.4.24+commit.e67f0147.Emscripten.clang"
  },
  "schemaVersion": "2.0.1",
  "updatedAt": "2019-01-22T03:22:59.931Z"
}